:020000040800F2
:10000000680500209D010008B31200082D110008AA
:10001000B1120008B90200084116000800000000F3
:10002000000000000000000000000000BB120008FB
:10003000BB02000800000000B9120008BD12000851
:10004000B7010008B7010008B7010008B7010008B0
:10005000B7010008B7010008B7010008B7010008A0
:10006000B7010008B7010008B7010008B701000890
:10007000B7010008B7010008B7010008B701000880
:10008000B7010008B7010008B7010008B701000870
:10009000B7010008B7010008B7010008B701000860
:1000A000B7010008B7010008B7010008B701000850
:1000B00075130008B7010008B7010008B701000870
:1000C000B7010008B7010008B7010008B701000830
:1000D000B7010008B7010008B7010008B701000820
:1000E000B7010008B7010008B7010008B701000810
:1000F000B7010008B7010008B7010008B701000800
:10010000B7010008B7010008B7010008B7010008EF
:10011000B7010008B7010008B7010008B7010008DF
:10012000B7010008B7010008B7010008B7010008CF
:10013000B7010008B7010008B7010008B7010008BF
:10014000B7010008B7010008B7010008B7010008AF
:10015000B7010008B7010008B7010008B70100089F
:10016000B7010008B7010008B7010008B70100088F
:10017000B7010008B7010008B7010008000000003F
:10018000B7010008B7010008DFF80CD000F082F8D2
:10019000004800478116000868050020064880478F
:1001A00006480047FEE7FEE7FEE7FEE7FEE7FEE75C
:1001B000FEE7FEE7FEE7FEE75913000889010008A5
:1001C0002DE9F05F0546002092469B46884606468C
:1001D000814640241BE0284641464746224600F01F
:1001E00048F853465A46C01A914110D31146184652
:1001F000224600F02FF82D1A67EB01084F462246E1
:100200000120002100F026F817EB00094E41201EC6
:10021000A4F10104DFDC484631462A464346BDE8E6
:10022000F09FD2B201E000F8012B491EFBD27047CB
:100230000022F6E710B513460A4604461946FFF7B2
:10024000F0FF204610BD421C10F8011B0029FBD115
:10025000801A7047202A04DB203A00FA02F10020BD
:1002600070479140C2F1200320FA03F319439040F4
:100270007047202A04DB203A21FA02F0002170475F
:1002800021FA02F3D040C2F12002914008431946FE
:1002900070470000064C074D06E0E06840F001039F
:1002A00094E8070098471034AC42F6D3FFF770FF8C
:1002B00094170008B4170008FEE7704772B6FEE70F
:1002C00070B5044600F0F6F80546601C02D00448FC
:1002D0000078044400F0EEF8401BA042FAD370BD51
:1002E000980000202DE9F84F00224FF00108032567
:1002F0004FF00F0E0B6808FA02F42340A3426ED1B0
:100300004E68012E05D0022E03D0112E01D0122EE0
:1003100012D186684FEA420C05FA0CF7BE43CF684B
:1003200007FA0CF7374387604668A6430C79C4F395
:100330000014944034434460C668570005FA07FC33
:100340008C6826EA0C06BC403443C4604C68022C1E
:1003500001D0122C13D1D40800EB8404A346D4F8A6
:10036000209054074FEAD46A0EFA0AF629EA0609E1
:100370000E6906FA0AF646EA0906CBF82060066816
:100380000C7926EA0C0604F00304BC4034430460F4
:100390004C68E40065D5364C266846F480462660F5
:1003A000246822F0030604F480440094314C344461
:1003B000A446D4F808489607370F0EFA07F6B44358
:1003C0002D4EB04201D1002624E02C4EB04201D186
:1003D00001261FE02A4EB04202D102261AE040E078
:1003E000284EB04201D1032614E0274EB04201D17D
:1003F00004260FE0254EB04201D105260AE0244E26
:10040000B04201D1062605E0224EB04201D10726B6
:1004100000E00826BE402643CCF808681E4E34682B
:100420004F689C43FF0300D51C4334601A4C241DC5
:1004300026684F689E43BF0300D51E432660164EB4
:10044000083634684F689C43FF0200D51C43346073
:10045000114E0C3634684F689C43BF0200D51C43D4
:100460003460521C102AFFF445AFBDE8F88F00003D
:1004700044380240003001400000024000040240C5
:1004800000080240000C024000100240001402402C
:1004900000180240001C0240003C0140426931EA61
:1004A000020200D10904816170470AB1816170477D
:1004B0000904FBE7014880687047000098000020AD
:1004C00002488168027811448160704798000020DA
:1004D0000B4810B5016841F400710160016841F4F6
:1004E00080610160016841F480710160032000F0C7
:1004F0006FF8002000F006F800F024F8002010BD8E
:10050000003C024070B50D4D04464FF47A712878D6
:10051000B1FBF0F00A490968B1FBF0F000F018FBFC
:1005200048B9102C07D200222146501E00F030F8A6
:1005300000206C6070BD012070BD0000980000209C
:10054000A40000200A4808B5016841F48041016018
:10055000006800F4804000900548001F016841F0E9
:1005600080510160006800F08050009008BD0000DC
:1005700044380240002809DB00F01F0201219140AD
:100580004009800000F1E020C0F800117047000031
:10059000F0B40E4B1B680C46C3F30223C3F10705EE
:1005A000042D00D90425191D072901D2002300E0DC
:1005B000DB1E012606FA05F1491E214099409E40A6
:1005C000761E16403143F0BC01F03BB80CED00E064
:1005D000064900F0070208684FF6FF03184040EA9A
:1005E0000220034A10430860704700000CED00E051
:1005F0000000FA05704700002DE9F0470E4605009F
:1006000065D0DFF81481D8F80000F7B200F00F00D1
:10061000B04207D288F80070D8F8000000F00F0050
:10062000B04254D128683D4C810712D5400703D50C
:10063000206840F4E05020602878000703D5206847
:1006400040F4604020602068A96820F0F000084372
:1006500020602878C0072DD0304968680839012803
:1006600012D0022813D0032811D009688907002965
:100670002DDA216821F0030101432160FFF71AFF01
:10068000814641F2883A0EE009688903EFE709687C
:100690008901ECE7FFF70EFFA0EB0901514502D9F4
:1006A0000320BDE8F0872068696800F00C00B0EB1B
:1006B000810FEFD1D8F80010404601F00F01B14290
:1006C00007D90770006800F00F00B04201D0012088
:1006D000E7E72878400705D52068E96820F4E0506E
:1006E000084320602878000706D52068296920F48F
:1006F000604040EAC100206000F03EF82168084AEE
:10070000C1F30311515CC8400649086006480068FF
:10071000FFF7F8FE0020C4E7003C02400838024022
:100720007C170008A40000209C0000200149012043
:10073000C8647047000047420448054900680968DA
:10074000044AC1F38221515CC8407047A4000020D4
:10075000083802408C1700080448054900680968F9
:10076000044AC1F34231515CC8407047A4000020E4
:10077000083802408C170008154810B5006810F0C2
:100780000C02144813D04110042A0FD0082A0ED1AD
:100790000F4C241F2268236802F03F025B0207D53A
:1007A0002068C0F38810A0FB010106E0084610BDD8
:1007B0002168C1F38811A1FB00010023FFF700FDB0
:1007C0002168C1F30141491C4900B0FBF1F010BDA3
:1007D000083802400024F400054810B500680006FF
:1007E00005D5FFF707FF02498020891C087010BD5E
:1007F0000C3802402DE9F84F04006ED02078DFF865
:100800003C93C007A9F104054AD009F1040001682E
:10081000C1F38101012908D00068C0F381000228DA
:100820000AD1D9F80000400206D52868800337D5E0
:1008300060680028E1D033E06068B0F5803F10D0F8
:10084000B0F5A02F286810D020F4803028602868E8
:1008500020F4802028606068A8B1FFF72BFE0646D0
:100860000DE0286840F48030F4E740F480202860F0
:10087000F7E700BFFFF71EFE801B642873D82868C7
:100880008003F7D50CE0FFF715FE064605E000BF34
:10089000FFF710FE801B6428F0D828688003F7D487
:1008A0002078DFF89C8280074FF0000A3ED5A348ED
:1008B000001D016811F00C0F08D00068C0F3810022
:1008C00002280BD1D9F80000400207D4286880071D
:1008D00016D5E068012800D112E02BE1E068B8B13C
:1008E0000120C8F80000FFF7E5FD064605E000BF5F
:1008F000FFF7E0FD801B0228C0D828688007F7D5E5
:100900002868216920F0F80040EAC10028600DE065
:10091000C8F800A0FFF7CEFD064604E0FFF7CAFDC9
:10092000801B02281FD828688007F7D4207800078A
:1009300022D5824E83486169703671B10121016010
:10094000FFF7B8FD074604E0FFF7B4FDC01B02281F
:1009500009D830688007F7D50EE0C0F800A0FFF78F
:10096000A9FD074605E082E0FFF7A4FDC01B0228B1
:100970007DD830688007F7D42078400768D5DFF845
:10098000BCB100270BF13C0BDBF80000C0000BD41E
:10099000DBF8001041F08051CBF80010DBF80000CC
:1009A000012700F080500090674E3068C00510D4D9
:1009B000306840F480703060FFF77CFD009005E007
:1009C000FFF778FD0099401A022850D83068C0051A
:1009D000F6D55A4EA0686C3601280FD0052830682D
:1009E00010D020F001003060306820F0040030604A
:1009F000A068B8B1FFF75EFD00900FE0306840F0EE
:100A00000100F4E740F004003060F7E7FFF752FD23
:100A10000099411A41F28830814266D830688007D7
:100A2000F4D50EE0FFF746FD009007E0FFF742FD2A
:100A30000099411A41F28830814256D830688007C7
:100A4000F4D42FB1DBF8001021F08051CBF8001066
:100A5000A069C8B33949091D0968C1F38101022998
:100A60004AD00228504607D0C8F8600000E03CE0B9
:100A7000FFF720FD04463BE04746C8F86000FFF75B
:100A800019FD064605E000BFFFF714FD801B022894
:100A90002BD828688001F7D4D4E907010843A16A5C
:100AA0002A4A490802EB0141626A41EA821108437D
:100AB00094F82C1040EA0161C9F800100120386652
:100AC000FFF7F8FC044606E036E000BFFFF7F2FC53
:100AD000001B022809D828688001F7D52CE000BF48
:100AE000FFF7E8FC001B022802D90320BDE8F88FBD
:100AF00028688001F4D41FE00128F7D0D9F800005D
:100B0000E26900F48001914214D1226A00F03F01B1
:100B100091420FD147F6C071626A0140914209D1FA
:100B2000A26A00F44031914204D1E16A00F07060A1
:100B3000884201D00120D9E70020D7E704380240DD
:100B400000004742800E4742007000400000FFFF57
:100B500010B5401EB0F1807F01D3012010BD4FF0D1
:100B6000E02460610F21601700F06BFD0020A061A0
:100B700007202061002010BD7047704770B590F8C5
:100B80003C20012A32D0012480F83C40022280F827
:100B90003D2003685A689D6822F070060A68324357
:100BA0005A60134B02689A4214D0B2F1804F11D0B0
:100BB000104B9A420ED0104B9A420BD00F4B9A42D8
:100BC00008D00F4B9A4205D00E4B9A4202D00E4BE2
:100BD0009A4204D1496825F080031943916080F856
:100BE0003D40002180F83C10084670BD022070BDD9
:100BF000000001400004004000080040000C0040DC
:100C000000040140004001400018004010B50400FD
:100C100003D094F83D0010B107E0012010BD002082
:100C200084F83C00204600F00DF8022084F83D00D6
:100C3000211D206800F0A4FB012084F83D00002065
:100C400010BD000008B50068B0F1804F12D10A480D
:100C5000016841F0010101600068002200F001001C
:100C6000009011461C20FFF793FCBDE808401C20B3
:100C7000FFF780BC08BD0000403802400168CA6828
:100C800042F00102CA600068816801F0070106298C
:100C900003D0016841F0010101600020704770B588
:100CA000044690F83C00012817D0012584F83C50F8
:100CB000022084F83D002068826822F0770222F446
:100CC0007F4282600868502830D00DDC20284DD04B
:100CD00005DC98B310283BD148E0022070BD3028D5
:100CE00044D0402834D139E0602828D0702806D07C
:100CF000B0F5805F2CD0B0F5005F29D10AE0CB6859
:100D0000D1E90121206800F09FFB2068816841F053
:100D1000770109E0CB68D1E90121206800F094FB5C
:100D20002068816841F48041816011E0CA684968A7
:100D3000206800F09BFB5021206807E016E0CA689D
:100D40004968206800F0A3FB6021206800F086FB62
:100D500084F83D50002084F83C0070BDCA684968A2
:100D6000206800F083FB40212068EFE722680146FD
:100D70001046EBE7704770B50446006801694FF014
:100D80000005C943890715D4C168C943890711D42F
:100D9000E91E0161012020772068806980072046D4
:100DA00002D0FFF7E7FF04E000F098F8204600F0DB
:100DB00096F8257720680169C943490717D4C168A7
:100DC000C943490713D46FF0040101610220207761
:100DD0002068806910F4407F204602D0FFF7CAFFE8
:100DE00004E000F07BF8204600F079F825772068D1
:100DF0000169C943090716D4C168C943090712D458
:100E00006FF008010161042020772068C069800725
:100E1000204602D0FFF7AEFF04E000F05FF8204666
:100E200000F05DF8257720680169C943C90617D429
:100E3000C168C943C90613D46FF0100101610820CD
:100E400020772068C06910F4407F204602D0FFF769
:100E500091FF04E000F042F8204600F040F82577CA
:100E600020680169C943C90708D1C168C943C907D6
:100E700004D1891E0161204600F032F82068016922
:100E8000C943090609D4C168C943090605D46FF0EE
:100E9000800101612046FFF76FFE20680169C943A8
:100EA000490609D4C168C943490605D46FF0400119
:100EB0000161204600F034F820680169C9438906C1
:100EC0000BD4C168C943890607D46FF020010161C2
:100ED0002046BDE87040FFF750BE70BD70477047B8
:100EE0000D49884217D10D484188491C4180B0F90D
:100EF0000410428801EB8101914201D1012109E0F6
:100F0000B0F90410428801EB8101B2EB410F02D12C
:100F100000214180C1607047A8000020000000202F
:100F2000704770B5040004D094F83900002510B162
:100F300006E0012070BD84F83850204600F022F809
:100F4000242084F839002068C16821F40051C16070
:100F5000204600F0AFFA2068016921F49041016158
:100F60002068416921F02A0141612068C16841F48B
:100F70000051C160E563202084F8390084F83A000C
:100F8000002070BDF0B587B0044614216846FFF715
:100F90004FF91F4F236800221E490224032507260C
:100FA0001D48BB4213D11B4B14331F6847F0100779
:100FB0001F601B6803F0100305930B6843F00103E7
:100FC0000B60096801F001010591690215E0134FFA
:100FD000BB421AD10F4B10331F6847F400371F6014
:100FE0001B6803F4003305930B6843F001030B60A7
:100FF000096801F0010105910C21CDE9001402AB53
:10100000694683E86400FFF76DF907B0F0BD0000A2
:10101000001001403038024000000240004400400F
:1010200090F83A30202B22D1F9B1F2B190F8383053
:10103000012B1CD081628285C2850021C1632222DE
:1010400080F83A2080F838100168CA6842F480724B
:10105000CA6001684A6942F001024A610068C168D9
:1010600041F02001C160002070470120704702203C
:1010700070472DE9F843044690F839001F4616469C
:101080000D46202850D1B5B1AEB194F838000128F2
:101090004AD0012084F838004FF00008C4F83C80A2
:1010A000212084F83900FFF705FAA6848146E684FA
:1010B00084F8388026E00120BDE8F883E08C401EEB
:1010C000E084A0684B46B0F5805F4FF000024FF01F
:1010D00080012046009703D000F080FAE8B90DE0C7
:1010E00000F07CFAC8B928882168C0F3080048607D
:1010F000206908B16D1C05E0AD1C03E0216815F8FE
:10110000010B4860E08C0028D8D14B4600224021DA
:101110002046009700F062FA08B10320CCE72020B7
:1011200084F839000020C7E70220C5E7FEE7000089
:101130002DE9F04186B014216846FFF779F823487D
:101140000024016841F020010160016801F02001E4
:101150000591016841F080010160016801F08001A2
:101160000591016841F001010160016801F0010190
:101170000591016841F0400101600068144F00F0E2
:1011800040004FF4C0650590002229463846FFF71D
:101190008CF9DFF84080BE15002231464046FFF74B
:1011A00084F900950125CDE9015469463846039438
:1011B000FFF798F80096CDE901546946404603943C
:1011C000FFF790F806B0BDE8F0810000303802402B
:1011D000001402400018024010B586B000241748E1
:1011E000009401940294039404944FF08041059478
:1011F000016042F2CF01C0E9011440F2E731C0E9D9
:1012000003148461FFF702FD08B1FFF757F84FF4AC
:101210008050009069460948FFF741FD08B1FFF78B
:101220004DF8049404A905480594FFF7A7FC00288D
:1012300001D0FFF743F806B010BD0000A800002061
:101240000C4810B50A4901604FF4E13141600021BA
:1012500081600C22C160C0E904128161C161FFF7A5
:1012600060FE002803D0BDE81040FFF727B810BD8E
:1012700000100140E80000200C4810B50A49016048
:101280004FF4E1314160002181600C22C160C0E96E
:1012900004128161C161FFF744FE002803D0BDE85C
:1012A0001040FFF70BB810BD00440040280100209B
:1012B000FEE7FFF791FAFEE770477047FFF700B9C6
:1012C00030B593B030216846FEF7B2FF14210CA868
:1012D000FEF7AEFF1E480025016841F08051016015
:1012E000006800F0805011901A48016841F4804174
:1012F00001600068022400F48040119001200090F9
:10130000000401908001CDE90640082008904FF4C8
:10131000A870CDE9090404200B906846FFF76AFA2B
:1013200008B172B6FEE70CA90F2081E831004FF436
:10133000A0500F904FF48050109005210CA8FFF79B
:101340005BF908B172B6FEE7FFF7F0F913B030BDF4
:1013500040380240007000400548016841F47001C7
:10136000016003494FF00060803908607047000059
:1013700088ED00E00148FFF7FEBC0000A800002057
:10138000F0B50268254C264D264E274F274B4FF0CF
:10139000804CA04209D0604507D0A84205D0B04299
:1013A00003D0B84201D0984204D122F0700E4A68AE
:1013B00042EA0E02A0421BD0604519D0A84217D0C5
:1013C000B04215D0B84213D0984211D0184DA8425F
:1013D0000ED0184DA8420BD0174DA84208D0174D7B
:1013E000A84205D0164DA84202D0164DA84203D1FE
:1013F00022F44075CA682A434D6922F080022A43CC
:1014000002608A68C2620A688262A04201D0984281
:1014100001D10969016301214161F0BD0000014072
:101420000004004000080040000C0040000401409F
:1014300000400140004401400048014000180040C5
:10144000001C00400020004010B5846842EA0322DE
:1014500024F47F440A432243826010BD826822F054
:1014600070020A4342F007018160704710B5036AB9
:10147000046A24F001040462846924F0F00444EA5C
:10148000021423F00A020A438461026210BD10B5FF
:10149000036A23F0100303628369046A23F4704330
:1014A00043EA023224F0A00343EA0111826101629F
:1014B00010BD00002DE9F041044600680169E268B2
:1014C00021F44051114301612169A068E269084398
:1014D0006169114308432168CA6849F20C639A4361
:1014E0000243CA6020684169A26921F44071114336
:1014F0004161E069192764253226B0F5004F354A6D
:10150000354920684FF0000806D0884201D090424B
:1015100036D1FFF721F935E0884201D0904202D15F
:10152000FFF71AF901E0FFF707F961684A18A0FB15
:10153000070148EB0803FEF743FE0146B0FBF5F058
:101540000201B1FBF5F06FF01803584301EB800086
:1015500006EBC000B0FBF5F000F0F80002EB400233
:10156000B1FBF5F0584301EB800006EBC000B0FB87
:10157000F5F000F00700216810448860BDE8F081B4
:10158000FFF7DAF861688B0F8A00A0FB0701FEF70E
:1015900017FE0146B0FBF5F06FF01802504301EB67
:1015A000800006EB0010B0FBF5F000F0F002B1FB9C
:1015B000F5F002EB0012B1FBF5F06FF018035843A1
:1015C00001EB800006EB0010B0FBF5F000F00F001F
:1015D000D1E7000000140140001001402DE9F04166
:1015E000984617460E460446069D1DE0681C1BD013
:1015F0002DB1FEF75FFFA0EB0800A84214D92068C8
:10160000C16821F4D071C1602068416921F00101F5
:101610004161202084F8390084F83A00002084F8E1
:1016200038000320BDE8F0812068006836EA000039
:1016300004D00020B842D9D00020F3E70120F9E718
:10164000FEE70907090E002804DB00F1E02080F81E
:101650000014704700F00F0000F1E02080F8141D26
:10166000704702E008C8121F08C1002AFAD170476B
:101670007047002001E001C1121F002AFBD1704712
:10168000FEF726FFFFF71CFEFFF752FDFFF7A4FD54
:10169000FFF7D6FDFFF7F0FD1F4800F045F84FF4C7
:1016A000FA642046FEF70CFE1B48113000F03CF8AF
:1016B0002046FEF705FE1848C01F00F035F8174811
:1016C000FFF7DCFA1449012216391548FFF7A8FC88
:1016D000114CDFF85080012600254FF40077173CAD
:1016E00039464046FEF7DAFEA06810B9E0680128E6
:1016F0000BD0A0680128F3D1E0680028F0D106489B
:10170000473000F011F8A560EAE70348113000F017
:101710000BF8A660E4E7000017000020A8000020F6
:10172000E8000020001402402DE9F0478046FEF753
:101730008AFD054600244FF480770E4E4FF47A79E7
:1017400014E0012239463046FEF7AFFE08EB0401F3
:101750004B4601220848FFF78CFC002239463046F0
:10176000FEF7A3FE0120FEF7ABFD641CAC42E8DDF2
:10177000BDE8F087001802402801002000000000AA
:101780000000000001020304060708090000000031
:1017900001020304B417000800000020A8000000A4
:1017A000621600085C180008A8000020C0040000B1
:1017B00072160008000000000A000000000000008F
:1017C000000000003B4D4F3D303B003B4D4F3D3056
:1017D0003B554D3D353B4D4F3D313B003B50523D20
:1017E00031303030303B53503D3130303030303B91
:1017F00041433D3130303030303B44433D31303077
:101800003030303B53443D3130303030303B424754
:101810003B003B50523D2D31303030303B53503D3A
:101820003130303030303B41433D3130303030307A
:101830003B44433D3130303030303B53443D313018
:10184000303030303B42473B0000000001000000D8
:0C18500010000000000000000024F40064
:040000050800018965
:00000001FF
